:100000000C94A7000C94A70B0C94DA0B0C940D0C19
:100010000C94C4000C94C4000C94C4000C94C40050
:100020000C94C4000C94C4000C9431070C94FE068C
:100030000C94C4000C94C4000C94C4000C94C40030
:100040000C94C4000C94C4000C94C4000C94C40020
:100050000C94C40000407A10F35A00A0724E1809A4
:100060000010A5D4E80000E87648170000E40B541F
:10007000020000CA9A3B000000E1F50500008096EE
:100080009800000040420F000000A0860100000020
:10009000102700000000E8030000000064000000DA
:1000A00000000A00000000000100000000002C76A3
:1000B000D888DC674F0823DFC1DFAE59E1B1B796BE
:1000C000E5E3E453C63AE651997696E8E6C284261B
:1000D000EB898C9B62ED407C6FFCEFBC9C9F40F2F7
:1000E000BAA56FA5F490055A2AF75C936B6CF96773
:1000F0006DC11BFCE0E40D47FEF520E6B500D0ED38
:10010000902E0300943577050080841E080000209F
:100110004E0A000000C80C333333330F986E12833D
:100120001141EF8D2114893BE65516CFFEE6DB1811
:10013000D1844B381BF77C1D901DA4BBE4242032D6
:1001400084725E228100C9F124ECA1E53D271124CF
:100150001FBECFE5D8E0DEBFCDBF10E0A0E6B0E027
:10016000EAEAF1E402C005900D92A63AB107D9F788
:1001700010E0A6EAB0E001C01D92AC3BB107E1F788
:100180000E94D2190C94D3200C940000EF92FF929D
:100190000F931F937B018C0120E030E040E05FE48F
:1001A0000E94C60388238CF0C801B70120E030E02C
:1001B00040E05FE40E943E020E9426049B01AC01E5
:1001C000205030404040504806C0C801B7010E944E
:1001D00026049B01AC01B901CA011F910F91FF9048
:1001E000EF900895A0E0B0E0E8EFF0E00C94101E6E
:1001F000DC012B01FA019C91923008F439C1EB012A
:100200008881823008F433C1943069F4843009F075
:100210002FC111969C9111978981981709F428C1D3
:10022000A7E9B0E025C1843009F421C18230A9F4E6
:10023000923009F01DC19A01AD0188E0EA010990F0
:10024000AE01E90109929E018150C1F7E201898165
:1002500011969C918923818308C1923009F407C1CA
:1002600012962D903C901397EB018A819B811496F6
:10027000AD90BD90CD90DC901797EC80FD800E8105
:100280001F819101281B390BB90137FF04C0662774
:100290007727621B730B603271050CF061C0121678
:1002A00013066CF537014801062E04C09694879416
:1002B000779467940A94D2F721E030E040E050E070
:1002C00004C0220F331F441F551F6A95D2F72150D7
:1002D0003040404050402E213F21402351232115E2
:1002E00031054105510521F021E030E040E050E0CA
:1002F00079018A01E628F728082919293CC0232B0F
:10030000D1F1260E371E35014601062E04C0969403
:100310008794779467940A94D2F721E030E040E024
:1003200050E004C0220F331F441F551F6A95D2F7B7
:1003300021503040404050402A213B214C215D213A
:10034000211531054105510521F021E030E040E063
:1003500050E059016A01A628B728C828D9280BC03F
:10036000821593052CF01C01AA24BB24650103C04F
:10037000EE24FF24870111969C91D20111968C9155
:10038000981709F445C0992339F0A80197012A1953
:100390003B094C095D0906C0A60195012E193F09CC
:1003A000400B510B57FD08C01182338222822483F7
:1003B0003583468357831DC081E081833382228247
:1003C00088279927DC01821B930BA40BB50B848330
:1003D0009583A683B7830DC0220F331F441F551F7B
:1003E0002483358346835783828193810197938346
:1003F00082832481358146815781DA01C9010197C1
:10040000A109B1098F5F9F4FAF4FBF4328F30BC0C6
:10041000918333822282EA0CFB1C0C1D1D1DE48299
:10042000F5820683178383E08083248135814681AA
:10043000578157FF1AC0C901AA2797FDA095BA2F67
:1004400081709070A070B07056954795379527953C
:10045000822B932BA42BB52B84839583A683B78300
:1004600082819381019693838283DF0101C0D2014F
:10047000CD01CDB7DEB7E2E10C942C1EA0E2B0E0D6
:10048000E4E4F2E00C941C1E69837A838B839C83E2
:100490002D833E834F835887E9E0EE2EF12CEC0E3E
:1004A000FD1ECE010196B7010E944F058E010F5E21
:1004B0001F4FCE010596B8010E944F058A8991E031
:1004C00089278A8BC701B801AE01475E5F4F0E9442
:1004D000F2000E947A04A096E6E00C94381EA0E296
:1004E000B0E0E5E7F2E00C941C1E69837A838B830D
:1004F0009C832D833E834F835887F9E0EF2EF12CA8
:10050000EC0EFD1ECE010196B7010E944F058E0133
:100510000F5E1F4FCE010596B8010E944F05C7011F
:10052000B801AE01475E5F4F0E94F2000E947A045C
:10053000A096E6E00C94381EA0E2B0E0E2EAF2E019
:100540000C94101E69837A838B839C832D833E8356
:100550004F835887CE010196BE01675F7F4F0E948F
:100560004F05CE010596BE016F5E7F4F0E944F057D
:100570009985923088F089898230C8F0943019F4D6
:10058000823051F404C0843029F4923081F487E938
:1005900090E0C6C0923049F420E09A858A89981389
:1005A00021E02A87CE010996BBC0823049F420E0C1
:1005B0009A858A89981321E02A8BCE014196B0C092
:1005C0002D843E844F8458886D887E888F88988CCF
:1005D000EE24FF248701AA24BB24650140E050E0FB
:1005E00060E070E0E0E0F0E0C10181709070892B84
:1005F000E9F0E60CF71C081D191D9A01AB012A0D44
:100600003B1D4C1D5D1D80E090E0A0E0B0E0E614D5
:10061000F7040805190520F481E090E0A0E0B0E0BF
:10062000BA01A901480F591F6A1F7B1FAA0CBB1CE6
:10063000CC1CDD1C97FE08C081E090E0A0E0B0E09B
:10064000A82AB92ACA2ADB2A3196E032F10549F0F4
:10065000660C771C881C991C5694479437942794F1
:10066000C3CFFA85EA892B893C898B859C85280F25
:10067000391F2E5F3F4F17C0CA0181709070892BC0
:1006800061F016950795F794E79480E090E0A0E07C
:10069000B0E8E82AF92A0A2B1B2B7695679557951F
:1006A00047952F5F3F4F77FDE7CF0CC0440F551F95
:1006B000661F771F17FD4160EE0CFF1C001F111F06
:1006C00021503040403090E0590790E0690790E4B5
:1006D000790760F32B8F3C8FDB01CA018F77907015
:1006E000A070B07080349105A105B10561F447FD9B
:1006F0000AC0E114F1040105110529F0405C5F4FC7
:100700006F4F7F4F40781A8EFE1711F081E08A8F6D
:100710004D8F5E8F6F8F78A383E0898FCE014996CE
:100720000E947A04A096E2E10C942C1EA8E1B0E0AD
:10073000ECE9F3E00C941C1E69837A838B839C8321
:100740002D833E834F83588789E0E82EF12CEC0EF1
:10075000FD1ECE010196B7010E944F058E010F5E6E
:100760001F4FCE010596B8010E944F058985823042
:1007700040F08989823028F0C701B8010E94C7057E
:1007800001C08FEF6896E6E00C94381EA8E1B0E057
:10079000ECECF3E00C941C1E69837A838B839C83BE
:1007A0002D833E834F83588789E0E82EF12CEC0E91
:1007B000FD1ECE010196B7010E944F058E010F5E0E
:1007C0001F4FCE010596B8010E944F0589858230E2
:1007D00040F08989823028F0C701B8010E94C7051E
:1007E00001C08FEF6896E6E00C94381EA8E1B0E0F7
:1007F000ECEFF3E00C941C1E69837A838B839C835B
:100800002D833E834F83588789E0E82EF12CEC0E30
:10081000FD1ECE010196B7010E944F058E010F5EAD
:100820001F4FCE010596B8010E944F058985823081
:1008300040F08989823028F0C701B8010E94C705BD
:1008400001C081E06896E6E00C94381EACE0B0E0B0
:10085000ECE2F4E00C94201E69837A838B839C8302
:10086000CE010196BE016B5F7F4F0E944F058D81C7
:10087000823061F1823050F1843021F48E818823FE
:1008800051F12EC02F81388537FD20C06E812F3168
:1008900031051CF06623F9F023C08EE190E0821B45
:1008A000930B29853A854B855C8504C05695479501
:1008B000379527958A95D2F76623B1F050954095E4
:1008C000309521953F4F4F4F5F4F0EC020E030E0F5
:1008D00040E050E009C02FEF3FEF4FEF5FE704C06B
:1008E00020E030E040E050E8B901CA012C96E2E097
:1008F0000C943C1EDF92EF92FF920F931F93FC012A
:10090000E480F58006811781D1808081823048F4AF
:1009100080E090E0A0E1B0E0E82AF92A0A2B1B2B46
:10092000A5C0843009F49FC0823021F4EE24FF2456
:10093000870105C0E114F1040105110519F4E0E097
:10094000F0E096C0628173819FEF623879070CF006
:100950005BC022E83FEF261B370B2A3131052CF014
:1009600020E030E040E050E02AC0B801A701022EAC
:1009700004C076956795579547950A94D2F781E01C
:1009800090E0A0E0B0E004C0880F991FAA1FBB1F31
:100990002A95D2F70197A109B1098E219F21A023A1
:1009A000B1230097A105B10521F081E090E0A0E01E
:1009B000B0E09A01AB01282B392B4A2B5B2BDA01D3
:1009C000C9018F779070A070B07080349105A10537
:1009D000B10539F427FF09C0205C3F4F4F4F5F4FEF
:1009E00004C0215C3F4F4F4F5F4FE0E0F0E020300C
:1009F000A0E03A07A0E04A07A0E45A0710F0E1E0BF
:100A0000F0E079018A0127C06038710564F5FB01C7
:100A1000E158FF4FD801C7018F779070A070B07078
:100A200080349105A105B10539F4E7FE0DC080E4DD
:100A300090E0A0E0B0E004C08FE390E0A0E0B0E080
:100A4000E80EF91E0A1F1B1F17FF05C01695079514
:100A5000F794E794319687E016950795F794E79415
:100A60008A95D1F705C0EE24FF248701EFEFF0E06F
:100A70006E2F679566276795902F9F77D794DD2413
:100A8000D7948E2F8695492F462B582F5D29B70175
:100A9000CA011F910F91FF90EF90DF900895FC0124
:100AA000DB01408151812281622F6F7770E0221F2C
:100AB0002227221F9381892F880F822B282F30E035
:100AC000991F9927991F11969C931197211531050C
:100AD000A9F5411551056105710511F482E037C092
:100AE00082E89FEF13969C938E9312979A01AB0125
:100AF00067E0220F331F441F551F6A95D1F783E02B
:100B00008C930DC0220F331F441F551F12968D91D9
:100B10009C911397019713969C938E931297203074
:100B200080E0380780E0480780E4580758F31496BF
:100B30002D933D934D935C93179708952F3F310567
:100B400079F4411551056105710519F484E08C9320
:100B5000089564FF03C081E08C9312C01C9210C002
:100B60002F57304013963C932E93129783E08C932B
:100B700087E0440F551F661F771F8A95D1F7706471
:100B800014964D935D936D937C93179708951F93DF
:100B9000DC01FB019C91923008F447C080818230D7
:100BA00008F443C0943051F411961C91843099F5A7
:100BB0008181682F70E0611B71093FC0843021F092
:100BC000923031F48230B9F18181882389F12DC0CE
:100BD00011961C9111978230F1F081811817D9F488
:100BE00012962D913C9113978281938182179307DE
:100BF00094F028173907BCF014968D919D910D90B3
:100C0000BC91A02D24813581468157812817390751
:100C10004A075B0718F4112341F00AC082179307B3
:100C2000A407B50740F4112319F061E070E005C096
:100C30006FEF7FEF02C060E070E0CB011F9108957D
:100C4000DF93CF9300D000D000D0CDB7DEB76B8359
:100C50007C838D839E831A821982EBE2F0E082E02E
:100C60008083EAE2F0E088E18083E0E4F0E086E877
:100C700080838B819C81AD81BE81880F991FAA1FC3
:100C8000BB1F880F991FAA1FBB1F880F991FAA1F80
:100C9000BB1F9C01AD0180E094E2A4EFB0E0BC0179
:100CA000CD010E94EE1DDA01C90101979A83898363
:100CB000E0E4F0E089819A81892F99278083E9E235
:100CC000F0E08981808326960FB6F894DEBF0FBED0
:100CD000CDBFCF91DF910895DF93CF930F92CDB722
:100CE000DEB78983EBE2F0E08081882F90E08072AC
:100CF00090700097B9F3ECE2F0E0898180830F9067
:100D0000CF91DF910895DF93CF93CDB7DEB7EBE2BC
:100D1000F0E080818823DCF7ECE2F0E08081CF9185
:100D2000DF910895DF93CF9300D00F92CDB7DEB758
:100D30009B838A8319820EC08981282F30E08A81A3
:100D40009B81FC01E20FF31F80810E946C06898168
:100D50008F5F89838981282F30E08A819B81FC0104
:100D6000E20FF31F8081882339F70F900F900F90C7
:100D7000CF91DF9108950F931F93DF93CF9300D00E
:100D80000F92CDB7DEB79B838A8319828981282F82
:100D900030E08A819B818C01020F131F0E94830621
:100DA000F80180830FC089818F5F89838981282F13
:100DB00030E08A819B818C01020F131F0E94830601
:100DC000F80180838981282F30E08A819B81FC0192
:100DD000E20FF31F8081833231F78981282F30E0C1
:100DE0008A819B81FC01E20FF31F10820F900F900C
:100DF0000F90CF91DF911F910F9108951F920F9245
:100E00000FB60F9211242F933F934F935F936F93DD
:100E10007F938F939F93AF93BF93EF93FF93DF9352
:100E2000CF93CDB7DEB78091A6009091A700009731
:100E300029F0E091A600F091A7000995CF91DF91EC
:100E4000FF91EF91BF91AF919F918F917F916F91A2
:100E50005F914F913F912F910F900FBE0F901F9078
:100E600018951F920F920FB60F9211242F933F9354
:100E70004F935F936F937F938F939F93AF93BF93A2
:100E8000EF93FF93DF93CF93CDB7DEB78091A600AA
:100E90009091A700009729F0E091A600F091A7009B
:100EA0000995CF91DF91FF91EF91BF91AF919F9104
:100EB0008F917F916F915F914F913F912F910F9003
:100EC0000FBE0F901F901895DF93CF9300D0CDB732
:100ED000DEB79A838983E981FA818281882379F454
:100EE000E3E5F0E0808180688083E3E5F0E08081E5
:100EF0008F7B8083E3E5F0E08081877F8083E981D9
:100F0000FA818281823079F4E3E5F0E080818068C3
:100F10008083E3E5F0E080818F7B8083E3E5F0E090
:100F2000808188608083E981FA818281833079F4CD
:100F3000E3E5F0E080818F778083E3E5F0E0808176
:100F400080648083E3E5F0E0808188608083E981CC
:100F5000FA818481882351F4E3E5F0E080818F7E7B
:100F60008083E3E5F0E080818F7D8083E981FA81F1
:100F70008481813051F4E3E5F0E0808180618083F9
:100F8000E3E5F0E080818F7D8083E981FA818481CF
:100F9000823051F4E3E5F0E080818F7E8083E3E5E9
:100FA000F0E0808180628083E981FA8184818330EE
:100FB00051F4E3E5F0E0808180618083E3E5F0E0D7
:100FC000808180628083A3E5B0E0E3E5F0E080818A
:100FD000982F987FE981FA818381892B8C93A2E5F0
:100FE000B0E0E981FA8180818C93ACE5B0E0E981E1
:100FF000FA8181818C93E9E5F0E0808182608083D1
:10100000E9E5F0E08081816080830F900F90CF91BF
:10101000DF910895DF93CF93CDB7DEB7E3E5F0E03E
:101020001082E2E5F0E01082ECE5F0E01082E9E504
:10103000F0E080818D7F8083E9E5F0E080818E7F24
:1010400080831092A7001092A600CF91DF9108959F
:10105000DF93CF9300D0CDB7DEB79A8389838981A0
:101060009A819093A7008093A6000F900F90CF9144
:10107000DF910895DF93CF930F92CDB7DEB78983C9
:101080008981853610F084E68983ECE5F0E089817A
:10109000482F50E0CA019C01220F331FC9019695C9
:1010A000982F882797958795821B930B840F951F00
:1010B00024E630E0B9010E94DA1DCB0180830F9055
:1010C000CF91DF910895DF93CF9300D000D00F929E
:1010D000CDB7DEB789836A834B838A81883008F075
:1010E000D5C08981843008F0D1C08981282F30E0B3
:1010F0003D832C838C819D818130910509F443C00F
:101100002C813D81223031052CF48C819D8100970A
:1011100071F0BCC02C813D812230310509F45FC0E3
:101120008C819D818330910509F485C0AFC08B818E
:101130008130A1F4AAE3B0E0EAE3F0E08081482F37
:101140008A81282F30E081E090E0022E02C0880FD3
:10115000991F0A94E2F7842B8C9398C0AAE3B0E01D
:10116000EAE3F0E08081482F8A81282F30E081E097
:1011700090E0022E02C0880F991F0A94E2F7809532
:1011800084238C9383C08B818130A1F4A7E3B0E0EA
:10119000E7E3F0E08081482F8A81282F30E081E06A
:1011A00090E0022E02C0880F991F0A94E2F7842B68
:1011B0008C936CC0A7E3B0E0E7E3F0E08081482FB8
:1011C0008A81282F30E081E090E0022E02C0880F53
:1011D000991F0A94E2F7809584238C9357C08B81E2
:1011E0008130A1F4A4E3B0E0E4E3F0E08081482F93
:1011F0008A81282F30E081E090E0022E02C0880F23
:10120000991F0A94E2F7842B8C9340C0A4E3B0E0CA
:10121000E4E3F0E08081482F8A81282F30E081E0EC
:1012200090E0022E02C0880F991F0A94E2F7809581
:1012300084238C932BC08B818130A1F4A1E3B0E097
:10124000E1E3F0E08081482F8A81282F30E081E0BF
:1012500090E0022E02C0880F991F0A94E2F7842BB7
:101260008C9314C0A1E3B0E0E1E3F0E08081482F6B
:101270008A81282F30E081E090E0022E02C0880FA2
:10128000991F0A94E2F7809584238C930F900F9016
:101290000F900F900F90CF91DF910895DF93CF9330
:1012A00000D000D00F92CDB7DEB789836A834B831D
:1012B0008A81883008F0D5C08981843008F0D1C097
:1012C0008981282F30E03D832C838C819D81813062
:1012D000910509F443C02C813D81223031052CF465
:1012E0008C819D81009771F0BCC02C813D812230A2
:1012F000310509F45FC08C819D818330910509F42B
:1013000085C0AFC08B818823A9F4ABE3B0E0EBE3E9
:10131000F0E08081482F8A81282F30E081E090E042
:10132000022E02C0880F991F0A94E2F78095842349
:101330008C9397C0ABE3B0E0EBE3F0E08081482F03
:101340008A81282F30E081E090E0022E02C0880FD1
:10135000991F0A94E2F7842B8C9383C08B81882396
:10136000A9F4A8E3B0E0E8E3F0E08081482F8A81A7
:10137000282F30E081E090E0022E02C0880F991FF4
:101380000A94E2F7809584238C936BC0A8E3B0E0C5
:10139000E8E3F0E08081482F8A81282F30E081E067
:1013A00090E0022E02C0880F991F0A94E2F7842B66
:1013B0008C9357C08B818823A9F4A5E3B0E0E5E3C3
:1013C000F0E08081482F8A81282F30E081E090E092
:1013D000022E02C0880F991F0A94E2F78095842399
:1013E0008C933FC0A5E3B0E0E5E3F0E08081482FB7
:1013F0008A81282F30E081E090E0022E02C0880F21
:10140000991F0A94E2F7842B8C932BC08B8188233D
:10141000A9F4A2E3B0E0E2E3F0E08081482F8A8102
:10142000282F30E081E090E0022E02C0880F991F43
:101430000A94E2F7809584238C9313C0A2E3B0E072
:10144000E2E3F0E08081482F8A81282F30E081E0BC
:1014500090E0022E02C0880F991F0A94E2F7842BB5
:101460008C930F900F900F900F900F90CF91DF9172
:101470000895DF93CF9300D000D00F92CDB7DEB7A1
:101480008A836B8319828B81883008F084C08A81BB
:10149000843008F080C08A81282F30E03D832C837F
:1014A0004C815D814130510579F18C819D81823083
:1014B000910534F42C813D812115310569F06BC013
:1014C0004C815D8142305105B9F18C819D81833021
:1014D000910509F449C05FC0E9E3F0E08081282F5D
:1014E00030E08B81882F90E0A90102C05595479587
:1014F0008A95E2F7CA0181709070882319F081E023
:10150000898349C0198247C0E6E3F0E08081282F33
:1015100030E08B81882F90E0A90102C05595479556
:101520008A95E2F7CA0181709070882319F081E0F2
:10153000898331C019822FC0E3E3F0E08081282F36
:1015400030E08B81882F90E0A90102C05595479526
:101550008A95E2F7CA0181709070882319F081E0C2
:10156000898319C0198217C0E0E3F0E08081282F39
:1015700030E08B81882F90E0A90102C055954795F6
:101580008A95E2F7CA0181709070882319F081E092
:10159000898301C0198289810F900F900F900F905D
:1015A0000F90CF91DF910895DF93CF9300D000D0BB
:1015B000CDB7DEB789836A838981843090F58981CC
:1015C000282F30E03C832B838B819C8181309105D7
:1015D000D1F02B813C81223031052CF48B819C8110
:1015E000009761F01EC02B813C812230310581F0D3
:1015F0008B819C818330910581F013C0EAE3F0E098
:101600008A8180830EC0E7E3F0E08A81808309C08D
:10161000E4E3F0E08A81808304C0E1E3F0E08A81C2
:1016200080830F900F900F900F90CF91DF910895CE
:10163000DF93CF9300D000D0CDB7DEB789836A8324
:101640008981843090F58981282F30E03C832B8379
:101650008B819C8181309105D1F02B813C8122309E
:1016600031052CF48B819C81009761F01EC02B8189
:101670003C812230310581F08B819C818330910542
:1016800081F013C0EBE3F0E08A8180830EC0E8E3D1
:10169000F0E08A81808309C0E5E3F0E08A818083FD
:1016A00004C0E2E3F0E08A8180830F900F900F90F6
:1016B0000F90CF91DF910895DF93CF9300D000D0AA
:1016C0000F92CDB7DEB78A8319828A81843010F0F9
:1016D0001D8234C08A81282F30E03C832B838B818C
:1016E0009C8181309105D1F02B813C8122303105E4
:1016F0002CF48B819C81009761F01EC02B813C8172
:101700002230310581F08B819C818330910581F0FD
:1017100013C0E9E3F0E0808189830EC0E6E3F0E0E6
:101720008081898309C0E3E3F0E08081898304C07C
:10173000E0E3F0E08081898399819D838D810F9022
:101740000F900F900F900F90CF91DF9108951F92FF
:101750000F920FB60F9211242F933F934F935F93E5
:101760006F937F938F939F93AF93BF93EF93FF9369
:10177000DF93CF93CDB7DEB78091A8009091A900F9
:10178000009729F0E091A800F091A9000995CF9168
:10179000DF91FF91EF91BF91AF919F918F917F91D9
:1017A0006F915F914F913F912F910F900FBE0F90CE
:1017B0001F9018951F920F920FB60F9211242F931E
:1017C0003F934F935F936F937F938F939F93AF93C9
:1017D000BF93EF93FF93DF93CF93CDB7DEB78091A5
:1017E000AA009091AB00009729F0E091AA00F09137
:1017F000AB000995CF91DF91FF91EF91BF91AF9130
:101800009F918F917F916F915F914F913F912F9118
:101810000F900FBE0F901F9018951F920F920FB64A
:101820000F9211242F933F934F935F936F937F9366
:101830008F939F93AF93BF93EF93FF93DF93CF93D8
:10184000CDB7DEB78091AC009091AD00009729F044
:10185000E091AC00F091AD000995CF91DF91FF913F
:10186000EF91BF91AF919F918F917F916F915F9118
:101870004F913F912F910F900FBE0F901F90189591
:10188000DF93CF9300D0CDB7DEB79A838983A5E5E8
:10189000B0E0E5E5F0E08081982F9C7FE981FA8156
:1018A00080818370892B8C9383E062E040E00E940A
:1018B0006308EBE5F0E08081806480830F900F90F7
:1018C000CF91DF910895DF93CF9300D0CDB7DEB7EE
:1018D0009A838983A5E5B0E0E5E5F0E08081282FD3
:1018E000237FE981FA818081882F90E08370907056
:1018F000880F991F880F991F822B8C9383E063E0D8
:1019000040E00E946308EBE5F0E08081806880831E
:101910000F900F90CF91DF910895DF93CF9300D078
:10192000CDB7DEB79A838983E981FA8180818823E4
:1019300031F4E4E5F0E080818F7B808305C0E4E54D
:10194000F0E080818064808381E062E040E00E947A
:101950006308EBE5F0E08081806280830F900F9058
:10196000CF91DF910895DF93CF9300D0CDB7DEB74D
:101970009A83898389819A819093A9008093A80092
:101980000F900F90CF91DF910895DF93CF9300D008
:10199000CDB7DEB79A83898389819A819093AB0012
:1019A0008093AA000F900F90CF91DF910895DF935D
:1019B000CF9300D0CDB7DEB79A83898389819A818E
:1019C0009093AD008093AC000F900F90CF91DF917A
:1019D0000895DF93CF9300D00F92CDB7DEB79A83EF
:1019E0008983A7E2B0E0E7E2F0E0808180628C9337
:1019F000E7E2F0E08081A7E2B0E0E981FA8180814E
:101A0000882F90E000249695879507949695879562
:101A10000794982F802D8C93A6E2B0E0E6E2F0E0E8
:101A20008081982F987FE981FA818181892B8C931D
:101A3000A6E2B0E0E6E2F0E0808180688C930F904F
:101A40000F900F90CF91DF910895DF93CF930F9276
:101A5000CDB7DEB78983898187708983A7E2B0E03B
:101A6000E7E2F0E08081807E8C93A7E2B0E0E7E2DD
:101A7000F0E090818981892B8C93A6E2B0E0E6E2C8
:101A8000F0E0808180648C93E6E2F0E08081882F32
:101A900090E0807190700097B9F3A6E2B0E0E6E2C2
:101AA000F0E0808180618C93E4E2F0E080819181BC
:101AB0000F90CF91DF910895DF93CF93CDB7DEB72D
:101AC00082E064E041E00E94630882E064E040E07C
:101AD0000E944E09CF91DF910895DF93CF930F922B
:101AE000CDB7DEB789838981813031F482E064E04B
:101AF00041E00E944E0905C082E064E040E00E949F
:101B00004E090F90CF91DF910895DF93CF9300D0CE
:101B1000CDB7DEB71A82198280E00E94250D9A8324
:101B2000898389819A810F900F90CF91DF910895D9
:101B3000DF93CF93CDB7DEB72E970FB6F894DEBF05
:101B40000FBECDBF80E061E041E00E94630880E00D
:101B500062E041E00E94630880E090E0A0EAB1E426
:101B60008B879C87AD87BE876B857C858D859E85A1
:101B700020E030E04AE755E40E949C02DC01CB0102
:101B80008F839887A987BA876F81788589859A8599
:101B900020E030E040E85FE30E94F60388232CF465
:101BA00081E090E09E838D833FC06F817885898539
:101BB0009A8520E03FEF4FE757E40E9496031816FE
:101BC0004CF56B857C858D859E8520E030E040E27C
:101BD00051E40E949C02DC01CB01BC01CD010E94BA
:101BE000C600DC01CB019E838D830FC080E991E0AC
:101BF0009C838B838B819C810197F1F79C838B83E2
:101C00008D819E8101979E838D838D819E8100971A
:101C100069F714C06F81788589859A850E94C6000E
:101C2000DC01CB019E838D838D819E819A83898384
:101C300089819A810197F1F79A83898380E063E033
:101C400041E00E94630880E064E041E00E94630894
:101C500080E065E041E00E94630880E066E041E0EA
:101C60000E94630883E30E944A0E82E30E944A0EA8
:101C700088E20E944A0E8CE00E944A0E81E00E9497
:101C80004A0E2E960FB6F894DEBF0FBECDBFCF9191
:101C9000DF9108950F931F93DF93CF93CDB7DEB7F6
:101CA000C356D0400FB6F894DEBF0FBECDBFFE01C5
:101CB000ED59FF4F808380E061E040E00E944E09D3
:101CC000FE01E15AFF4F80E090E0A0E8BFE380838F
:101CD0009183A283B3838E01055A1F4FFE01E15AFF
:101CE000FF4F608171818281938120E030E04AE77B
:101CF00055E40E949C02DC01CB01F80180839183B2
:101D0000A283B383FE01E55AFF4F60817181828116
:101D1000938120E030E040E85FE30E94F6038823EF
:101D200044F4FE01E75AFF4F81E090E09183808305
:101D300064C0FE01E55AFF4F608171818281938109
:101D400020E03FEF4FE757E40E94960318160CF08F
:101D500043C0FE01E15AFF4F60817181828193810E
:101D600020E030E040E251E40E949C02DC01CB0123
:101D70008E01075A1F4FBC01CD010E94C600DC0135
:101D8000CB01F801918380831FC0FE01E95AFF4F08
:101D900080E991E091838083FE01E95AFF4F8081C1
:101DA00091810197F1F7FE01E95AFF4F91838083FA
:101DB000DE01A75ABF4FFE01E75AFF4F8081918194
:101DC000019711969C938E93FE01E75AFF4F8081F5
:101DD00091810097D1F627C08E01075A1F4FFE014F
:101DE000E55AFF4F60817181828193810E94C60014
:101DF000DC01CB01F80191838083DE01AB5ABF4F38
:101E0000FE01E75AFF4F808191818D939C93FE01E3
:101E1000EB5AFF4F808191810197F1F7FE01EB5A58
:101E2000FF4F9183808380E062E041E00E944E0991
:101E3000FE01EF5AFF4F80E090E0A0E8BFE380830F
:101E40009183A283B3838E01035B1F4FFE01EF5A80
:101E5000FF4F608171818281938120E030E04AE709
:101E600055E40E949C02DC01CB01F8018083918340
:101E7000A283B383FE01E35BFF4F608171818281A6
:101E8000938120E030E040E85FE30E94F60388237E
:101E900044F4FE01E55BFF4F81E090E09183808395
:101EA00064C0FE01E35BFF4F608171818281938199
:101EB00020E03FEF4FE757E40E94960318160CF01E
:101EC00043C0FE01EF5AFF4F60817181828193818F
:101ED00020E030E040E251E40E949C02DC01CB01B2
:101EE0008E01055B1F4FBC01CD010E94C600DC01C5
:101EF000CB01F801918380831FC0FE01E75BFF4F98
:101F000080E991E091838083FE01E75BFF4F808150
:101F100091810197F1F7FE01E75BFF4F9183808389
:101F2000DE01A55BBF4FFE01E55BFF4F8081918124
:101F3000019711969C938E93FE01E55BFF4F808184
:101F400091810097D1F627C08E01055B1F4FFE01DE
:101F5000E35BFF4F60817181828193810E94C600A3
:101F6000DC01CB01F80191838083DE01A95BBF4FC7
:101F7000FE01E55BFF4F808191818D939C93FE0173
:101F8000E95BFF4F808191810197F1F7FE01E95BE9
:101F9000FF4F91838083FE01ED59FF4F8081882F91
:101FA00090E080719070959587959595879595951A
:101FB000879595958795982F80E063E0492F0E943B
:101FC0004E09FE01ED59FF4F8081882F90E080720D
:101FD0009070959587959595879595958795959505
:101FE000879595958795982F80E064E0492F0E940A
:101FF0004E09FE01ED59FF4F8081882F90E08074DB
:102000009070082E892F000C881F990B000C881FD8
:10201000991F982F80E065E0492F0E944E09FE012C
:10202000ED59FF4F8081982F991F9927991F80E0C4
:1020300066E0492F0E944E09FE01ED5BFF4F80E0F4
:1020400090E0A0E8BFE380839183A283B3838E01F5
:10205000015C1F4FFE01ED5BFF4F6081718182814A
:10206000938120E030E04AE755E40E949C02DC01C5
:10207000CB01F80180839183A283B383FE01FF9695
:10208000608171818281938120E030E040E85FE3EC
:102090000E94F60388232CF481E090E09EAF8DAF80
:1020A00046C0FE01FF96608171818281938120E0AC
:1020B0003FEF4FE757E40E949603181664F5FE01C0
:1020C000ED5BFF4F608171818281938120E030E080
:1020D00040E251E40E949C02DC01CB01BC01CD0135
:1020E0000E94C600DC01CB019EAF8DAF0FC080E91E
:1020F00091E09CAF8BAF8BAD9CAD0197F1F79CAF9E
:102100008BAF8DAD9EAD01979EAF8DAF8DAD9EAD6A
:10211000009769F716C0FE01FF9660817181828188
:1021200093810E94C600DC01CB019EAF8DAF8DADC7
:102130009EAD9AAF89AF89AD9AAD0197F1F79AAF8D
:1021400089AF80E062E040E00E944E0980E090E0CC
:10215000A0E8BFE38DAB9EABAFABB8AF6DA97EA9D6
:102160008FA998AD20E030E04AE755E40E949C0238
:10217000DC01CB0189AB9AABABABBCAB69A97AA94B
:102180008BA99CA920E030E040E85FE30E94F603C1
:1021900088232CF481E090E098AB8FA73FC069A919
:1021A0007AA98BA99CA920E03FEF4FE757E40E9452
:1021B000960318164CF56DA97EA98FA998AD20E05D
:1021C00030E040E251E40E949C02DC01CB01BC0102
:1021D000CD010E94C600DC01CB0198AB8FA70FC0D8
:1021E00080E991E09EA78DA78DA59EA50197F1F7A7
:1021F0009EA78DA78FA598A9019798AB8FA78FA5AC
:1022000098A9009769F714C069A97AA98BA99CA914
:102210000E94C600DC01CB0198AB8FA78FA598A9BF
:102220009CA78BA78BA59CA50197F1F79CA78BA7D3
:1022300080E062E041E00E944E0980E090E0A0E88A
:10224000BFE38FA398A7A9A7BAA76FA178A589A56F
:102250009AA520E030E04AE755E40E949C02DC01A8
:10226000CB018BA39CA3ADA3BEA36BA17CA18DA12D
:102270009EA120E030E040E85FE30E94F60388235F
:102280002CF481E090E09AA389A33FC06BA17CA1CC
:102290008DA19EA120E03FEF4FE757E40E949603F7
:1022A00018164CF56FA178A589A59AA520E030E015
:1022B00040E251E40E949C02DC01CB01BC01CD0153
:1022C0000E94C600DC01CB019AA389A30FC080E95C
:1022D00091E098A38F8F8F8D98A10197F1F798A324
:1022E0008F8F89A19AA101979AA389A389A19AA105
:1022F000009769F714C06BA17CA18DA19EA10E94DB
:10230000C600DC01CB019AA389A389A19AA19E8F63
:102310008D8F8D8D9E8D0197F1F79E8F8D8FFE0194
:10232000ED59FF4F8081982F917080E063E0492F35
:102330000E944E09FE01ED59FF4F8081882F90E0E9
:102340008270907095958795982F80E064E0492F72
:102350000E944E09FE01ED59FF4F8081882F90E0C9
:10236000847090709595879595958795982F80E0C6
:1023700065E0492F0E944E09FE01ED59FF4F808113
:10238000882F90E0887090709595879595958795A2
:1023900095958795982F80E066E0492F0E944E0919
:1023A00080E090E0A0E8BFE3898F9A8FAB8FBC8F6D
:1023B000698D7A8D8B8D9C8D20E030E04AE755E465
:1023C0000E949C02DC01CB018D8B9E8BAF8BB88F62
:1023D0006D897E898F89988D20E030E040E85FE349
:1023E0000E94F60388232CF481E090E09C8B8B8B79
:1023F0003FC06D897E898F89988D20E03FEF4FE740
:1024000057E40E94960318164CF5698D7A8D8B8DD2
:102410009C8D20E030E040E251E40E949C02DC010F
:10242000CB01BC01CD010E94C600DC01CB019C8B1D
:102430008B8B0FC080E991E09A8B898B89899A896F
:102440000197F1F79A8B898B8B899C8901979C8BDB
:102450008B8B8B899C89009769F714C06D897E8965
:102460008F89988D0E94C600DC01CB019C8B8B8BE1
:102470008B899C89988B8F878F8598890197F1F735
:10248000988B8F8780E062E040E00E944E0980E0F8
:1024900090E0A0E8BFE38B879C87AD87BE876B8504
:1024A0007C858D859E8520E030E04AE755E40E94DA
:1024B0009C02DC01CB018F839887A987BA876F8143
:1024C000788589859A8520E030E040E85FE30E94C6
:1024D000F60388232CF481E090E09E838D833FC037
:1024E0006F81788589859A8520E03FEF4FE757E433
:1024F0000E94960318164CF56B857C858D859E850C
:1025000020E030E040E251E40E949C02DC01CB017B
:10251000BC01CD010E94C600DC01CB019E838D83EE
:102520000FC080E991E09C838B838B819C81019714
:10253000F1F79C838B838D819E8101979E838D8390
:102540008D819E81009769F714C06F817885898598
:102550009A850E94C600DC01CB019E838D838D810C
:102560009E819A83898389819A810197F1F79A8361
:102570008983CD59DF4F0FB6F894DEBF0FBECDBFB4
:10258000CF91DF911F910F9108950F931F93DF93C8
:10259000CF93CDB7DEB7C356D0400FB6F894DEBFA9
:1025A0000FBECDBFFE01ED59FF4F808380E061E09B
:1025B00041E00E944E09FE01E15AFF4F80E090E0A9
:1025C000A0E8BFE380839183A283B3838E01055A81
:1025D0001F4FFE01E15AFF4F60817181828193811B
:1025E00020E030E04AE755E40E949C02DC01CB0188
:1025F000F80180839183A283B383FE01E55AFF4FE4
:10260000608171818281938120E030E040E85FE366
:102610000E94F603882344F4FE01E75AFF4F81E04D
:1026200090E09183808364C0FE01E55AFF4F608192
:1026300071818281938120E03FEF4FE757E40E9450
:10264000960318160CF043C0FE01E15AFF4F60815B
:1026500071818281938120E030E040E251E40E9468
:102660009C02DC01CB018E01075A1F4FBC01CD013A
:102670000E94C600DC01CB01F801918380831FC05A
:10268000FE01E95AFF4F80E991E091838083FE01CA
:10269000E95AFF4F808191810197F1F7FE01E95AD4
:1026A000FF4F91838083DE01A75ABF4FFE01E75A97
:1026B000FF4F80819181019711969C938E93FE012B
:1026C000E75AFF4F808191810097D1F627C08E0194
:1026D000075A1F4FFE01E55AFF4F608171818281C9
:1026E00093810E94C600DC01CB01F80191838083B5
:1026F000DE01AB5ABF4FFE01E75AFF4F8081918147
:102700008D939C93FE01EB5AFF4F8081918101973D
:10271000F1F7FE01EB5AFF4F9183808380E062E086
:1027200041E00E944E09FE01EF5AFF4F80E090E029
:10273000A0E8BFE380839183A283B3838E01035B10
:102740001F4FFE01EF5AFF4F60817181828193819B
:1027500020E030E04AE755E40E949C02DC01CB0116
:10276000F80180839183A283B383FE01E35BFF4F73
:10277000608171818281938120E030E040E85FE3F5
:102780000E94F603882344F4FE01E55BFF4F81E0DD
:1027900090E09183808364C0FE01E35BFF4F608122
:1027A00071818281938120E03FEF4FE757E40E94DF
:1027B000960318160CF043C0FE01EF5AFF4F6081DC
:1027C00071818281938120E030E040E251E40E94F7
:1027D0009C02DC01CB018E01055B1F4FBC01CD01CA
:1027E0000E94C600DC01CB01F801918380831FC0E9
:1027F000FE01E75BFF4F80E991E091838083FE015A
:10280000E75BFF4F808191810197F1F7FE01E75B64
:10281000FF4F91838083DE01A55BBF4FFE01E55B27
:10282000FF4F80819181019711969C938E93FE01B9
:10283000E55BFF4F808191810097D1F627C08E0123
:10284000055B1F4FFE01E35BFF4F60817181828159
:1028500093810E94C600DC01CB01F8019183808343
:10286000DE01A95BBF4FFE01E55BFF4F80819181D7
:102870008D939C93FE01E95BFF4F808191810197CD
:10288000F1F7FE01E95BFF4F91838083FE01ED5973
:10289000FF4F8081882F90E080719070959587958B
:1028A000959587959595879595958795982F80E02F
:1028B00063E0492F0E944E09FE01ED59FF4F8081D0
:1028C000882F90E080729070959587959595879563
:1028D000959587959595879595958795982F80E0FF
:1028E00064E0492F0E944E09FE01ED59FF4F80819F
:1028F000882F90E080749070082E892F000C881F1C
:10290000990B000C881F991F982F80E065E0492FD4
:102910000E944E09FE01ED59FF4F8081982F991FAB
:102920009927991F80E066E0492F0E944E09FE0119
:10293000ED5BFF4F80E090E0A0E8BFE380839183F0
:10294000A283B3838E01015C1F4FFE01ED5BFF4F3D
:10295000608171818281938120E030E04AE755E413
:102960000E949C02DC01CB01F80180839183A28349
:10297000B383FE01FF96608171818281938120E0A3
:1029800030E040E85FE30E94F60388232CF481E006
:1029900090E09EAF8DAF46C0FE01FF9660817181D1
:1029A0008281938120E03FEF4FE757E40E94960336
:1029B000181664F5FE01ED5BFF4F60817181828125
:1029C000938120E030E040E251E40E949C02DC016F
:1029D000CB01BC01CD010E94C600DC01CB019EAF42
:1029E0008DAF0FC080E991E09CAF8BAF8BAD9CADFC
:1029F0000197F1F79CAF8BAF8DAD9EAD01979EAF68
:102A00008DAF8DAD9EAD009769F716C0FE01FF96A4
:102A100060817181828193810E94C600DC01CB01BB
:102A20009EAF8DAF8DAD9EAD9AAF89AF89AD9AAD9A
:102A30000197F1F79AAF89AF80E062E040E00E9431
:102A40004E0980E090E0A0E8BFE38DAB9EABAFAB5A
:102A5000B8AF6DA97EA98FA998AD20E030E04AE714
:102A600055E40E949C02DC01CB0189AB9AABABAB75
:102A7000BCAB69A97AA98BA99CA920E030E040E809
:102A80005FE30E94F60388232CF481E090E098AB8A
:102A90008FA73FC069A97AA98BA99CA920E03FEF25
:102AA0004FE757E40E94960318164CF56DA97EA9CE
:102AB0008FA998AD20E030E040E251E40E949C02F2
:102AC000DC01CB01BC01CD010E94C600DC01CB01C1
:102AD00098AB8FA70FC080E991E09EA78DA78DA529
:102AE0009EA50197F1F79EA78DA78FA598A901979D
:102AF00098AB8FA78FA598A9009769F714C069A90B
:102B00007AA98BA99CA90E94C600DC01CB0198ABD5
:102B10008FA78FA598A99CA78BA78BA59CA501978C
:102B2000F1F79CA78BA780E062E041E00E944E098C
:102B300080E090E0A0E8BFE38FA398A7A9A7BAA779
:102B40006FA178A589A59AA520E030E04AE755E471
:102B50000E949C02DC01CB018BA39CA3ADA3BEA36E
:102B60006BA17CA18DA19EA120E030E040E85FE355
:102B70000E94F60388232CF481E090E09AA389A3B5
:102B80003FC06BA17CA18DA19EA120E03FEF4FE74C
:102B900057E40E94960318164CF56FA178A589A5F5
:102BA0009AA520E030E040E251E40E949C02DC0162
:102BB000CB01BC01CD010E94C600DC01CB019AA370
:102BC00089A30FC080E991E098A38F8F8F8D98A182
:102BD0000197F1F798A38F8F89A19AA101979AA3E2
:102BE00089A389A19AA1009769F714C06BA17CA160
:102BF0008DA19EA10E94C600DC01CB019AA389A3EE
:102C000089A19AA19E8F8D8F8D8D9E8D0197F1F751
:102C10009E8F8D8FFE01ED59FF4F8081982F91700F
:102C200080E063E0492F0E944E09FE01ED59FF4FFD
:102C30008081882F90E08270907095958795982F6D
:102C400080E064E0492F0E944E09FE01ED59FF4FDC
:102C50008081882F90E084709070959587959595E8
:102C60008795982F80E065E0492F0E944E09FE016C
:102C7000ED59FF4F8081882F90E088709070959576
:102C800087959595879595958795982F80E066E02F
:102C9000492F0E944E0980E090E0A0E8BFE3898FB1
:102CA0009A8FAB8FBC8F698D7A8D8B8D9C8D20E038
:102CB00030E04AE755E40E949C02DC01CB018D8B99
:102CC0009E8BAF8BB88F6D897E898F89988D20E020
:102CD00030E040E85FE30E94F60388232CF481E0B3
:102CE00090E09C8B8B8B3FC06D897E898F89988DFE
:102CF00020E03FEF4FE757E40E94960318164CF58B
:102D0000698D7A8D8B8D9C8D20E030E040E251E41E
:102D10000E949C02DC01CB01BC01CD010E94C600D7
:102D2000DC01CB019C8B8B8B0FC080E991E09A8BEF
:102D3000898B89899A890197F1F79A8B898B8B897D
:102D40009C8901979C8B8B8B8B899C89009769F759
:102D500014C06D897E898F89988D0E94C600DC0120
:102D6000CB019C8B8B8B8B899C89988B8F878F85D4
:102D700098890197F1F7988B8F8780E062E040E0B7
:102D80000E944E0980E090E0A0E8BFE38B879C871B
:102D9000AD87BE876B857C858D859E8520E030E084
:102DA0004AE755E40E949C02DC01CB018F8398879F
:102DB000A987BA876F81788589859A8520E030E078
:102DC00040E85FE30E94F60388232CF481E090E062
:102DD0009E838D833FC06F81788589859A8520E0A9
:102DE0003FEF4FE757E40E94960318164CF56B85AA
:102DF0007C858D859E8520E030E040E251E40E9494
:102E00009C02DC01CB01BC01CD010E94C600DC01AB
:102E1000CB019E838D830FC080E991E09C838B83DF
:102E20008B819C810197F1F79C838B838D819E819F
:102E300001979E838D838D819E81009769F714C0D1
:102E40006F81788589859A850E94C600DC01CB0157
:102E50009E838D838D819E819A83898389819A81C6
:102E60000197F1F79A838983CD59DF4F0FB6F89414
:102E7000DEBF0FBECDBFCF91DF911F910F9108959F
:102E8000DF93CF9300D00F92CDB7DEB79B838A83B9
:102E900019820EC08981282F30E08A819B81FC0134
:102EA000E20FF31F80810E94C51289818F5F8983A1
:102EB0008981282F30E08A819B81FC01E20FF31F7A
:102EC0008081882339F70F900F900F90CF91DF9179
:102ED0000895DF93CF9300D000D00F92CDB7DEB727
:102EE0008A836B838A81282F30E03D832C838C81F9
:102EF0009D8181309105C1F02C813D8122303105C9
:102F00002CF48C819D81009761F019C02C813D814A
:102F10002230310569F08C819D818330910561F00B
:102F20000EC08B8189830BC08B81805C898307C035
:102F30008B81805F898303C08B81805B89838981DA
:102F400080680E944A0E0F900F900F900F900F9084
:102F5000CF91DF910895DF93CF9300D000D0CDB70C
:102F6000DEB789836A835C834B8389816A810E948F
:102F700069178B819C810E9440170F900F900F90D2
:102F80000F90CF91DF910895DF93CF93CDB7DEB748
:102F900062970FB6F894DEBF0FBECDBF9A8B898BB8
:102FA00089899A899E012F5F3F4FB9014AE050E01D
:102FB0000E94681ECE0101960E94401762960FB6CD
:102FC000F894DEBF0FBECDBFCF91DF9108950F9370
:102FD0001F93DF93CF93CDB7DEB764970FB6F89406
:102FE000DEBF0FBECDBF698B7A8B8B8B9C8B8989A3
:102FF0009A89AB89BC89BC01CD0146E050E023E051
:1030000030E0FE0131968F010E94471ECE010196ED
:103010000E94401764960FB6F894DEBF0FBECDBF76
:10302000CF91DF911F910F910895DF93CF93CDB78B
:10303000DEB781E00E944A0ECF91DF910895DF93C1
:10304000CF93CDB7DEB760970FB6F894DEBF0FBE53
:10305000CDBF81E060E040E00E94630881E060E075
:1030600041E00E944E0981E061E040E00E94630877
:1030700081E061E041E00E944E0981E062E040E0D1
:103080000E94630881E062E041E00E944E0981E015
:1030900063E040E00E94630881E063E041E00E9459
:1030A0004E0981E064E040E00E94630881E064E052
:1030B00041E00E944E0981E065E040E00E94630823
:1030C00081E065E041E00E944E0981E066E040E079
:1030D0000E94630881E066E041E00E944E0981E0C1
:1030E00067E040E00E94630881E067E041E00E9401
:1030F0004E091F86ABC081E06F8541E00E946308E6
:1031000081E06F8540E00E944E09188A22C08889BC
:10311000982F9C5F81E0692F0E94390A8823B1F4BF
:103120008F85882F90E0880F991F880F991F982FFF
:103130008889890F8F5F0E942B1960960FB6F894CB
:10314000DEBF0FBECDBFCF91DF91089588898F5F1D
:10315000888B88898430D8F281E06F8540E00E94B6
:10316000630880E090E0A0EAB0E48B879C87AD879D
:10317000BE876B857C858D859E8520E030E04AE7A3
:1031800055E40E949C02DC01CB018F839887A987BC
:10319000BA876F81788589859A8520E030E040E89C
:1031A0005FE30E94F60388232CF481E090E09E8385
:1031B0008D833FC06F81788589859A8520E03FEFB8
:1031C0004FE757E40E94960318164CF56B857C85F3
:1031D0008D859E8520E030E040E251E40E949C0213
:1031E000DC01CB01BC01CD010E94C600DC01CB019A
:1031F0009E838D830FC080E991E09C838B838B81BC
:103200009C810197F1F79C838B838D819E8101972F
:103210009E838D838D819E81009769F714C06F8195
:10322000788589859A850E94C600DC01CB019E8342
:103230008D838D819E819A83898389819A8101976B
:10324000F1F79A8389838F858F5F8F878F8584308D
:1032500008F451CF4ECFDF93CF9300D000D0CDB73D
:10326000DEB78A8319828A81282F30E03C832B8342
:103270008B819C818830910509F470C02B813C8141
:10328000293031055CF58B819C818430910509F4EE
:1032900059C02B813C81253031059CF48B819C8168
:1032A0008230910509F448C02B813C8123303105DF
:1032B0000CF045C08B819C818130910509F439C0A7
:1032C00067C02B813C812630310509F441C08B81D8
:1032D0009C81873091050CF03EC037C02B813C812A
:1032E0002C30310509F446C08B819C818D309105CD
:1032F0005CF42B813C812A303105B1F18B819C81BA
:103300008B309105A4F52DC02B813C812E303105E9
:10331000B9F18B819C818E3091057CF12B813C81B0
:103320002F30310579F18B819C818031910569F1D4
:103330002FC081E089832EC082E089832BC083E087
:10334000898328C08EE5898325C084E0898322C0D3
:1033500085E089831FC086E089831CC08EE5898350
:1033600019C087E0898316C088E0898313C089E08B
:10337000898310C08EE589830DC08EE589830AC0DC
:10338000198208C083E2898305C08EE5898302C063
:103390008A81898389810F900F900F900F90CF9130
:1033A000DF910895DF93CF93CDB7DEB7AC970FB61B
:1033B000F894DEBF0FBECDBF81E08F8F87E088A37A
:1033C00082E089A382E08AA3AE014D5D5F4F59A7D9
:1033D00048A780EA90E09BA78AA795E09CA7EAA56A
:1033E000FBA500804AA55BA54F5F5F4F5BA74AA77F
:1033F000E8A5F9A5008248A559A54F5F5F4F59A7D9
:1034000048A75CA551505CA78CA5882341F7CE0145
:1034100083960E946407CE0181960E94400CCE01E3
:1034200082960E94630CCE014F960E94E90C8FE5B4
:103430009DE10E94B30C88E69DE10E94C50C82E7E5
:103440009DE10E94280860E875E280E090E00E941B
:1034500020060E94980D0E945C0DEFE5F0E080814F
:103460008068808372C020E630E080E060E0A901DF
:103470000E94AB172DE630E081E060E0A9010E94D8
:10348000AB170E94850D8093B0008091B000282F6B
:1034900030E084E690E0FC012E9FC0012F9F900D4C
:1034A0003E9F900D1124AA2797FDA095BA2F2FEFCC
:1034B00030E040E050E0BC01CD010E94EE1DDA0199
:1034C000C901982F84E6891B8093BB0081E067E0E7
:1034D0000E9469178091BB00882F90E00E94C4175A
:1034E00085E20E94C5128091BB00833370F425E70A
:1034F00030E080E06CE0A9010E94AB1780E20E94FE
:10350000C51281E00E946D0D0AC028E730E080E01E
:103510006CE0A9010E94AB1780E00E946D0D8091C4
:10352000BB00843638F481E06AE00E94691780E2CB
:103530000E94C5128091BB008A3038F481E069E0B6
:103540000E94691780E20E94C5128091AE00882314
:1035500009F489CF50C180E00E946D0D0E941518BA
:103560002CE730E080E060E0A9010E94AB1781E029
:1035700060E00E946917CE014D960E94B31C80E066
:1035800090E8ABEBB4E4898F9A8FAB8FBC8F698DD9
:103590007A8D8B8D9C8D20E030E04AE755E40E94C7
:1035A0009C02DC01CB018D8B9E8BAF8BB88F6D891C
:1035B0007E898F89988D20E030E040E85FE30E94AB
:1035C000F60388232CF481E090E09C8B8B8B3FC02A
:1035D0006D897E898F89988D20E03FEF4FE757E412
:1035E0000E94960318164CF5698D7A8D8B8D9C8DF3
:1035F00020E030E040E251E40E949C02DC01CB017B
:10360000BC01CD010E94C600DC01CB019C8B8B8BE1
:103610000FC080E991E09A8B898B89899A890197FB
:10362000F1F79A8B898B8B899C8901979C8B8B8B6B
:103630008B899C89009769F714C06D897E898F8971
:10364000988D0E94C600DC01CB019C8B8B8B8B89F3
:103650009C89988B8F878F8598890197F1F7988B34
:103660008F870E94151829E830E080E066E0A90104
:103670000E94AB1780E090E8ABEBB4E48B879C87AB
:10368000AD87BE876B857C858D859E8520E030E08B
:103690004AE755E40E949C02DC01CB018F839887A6
:1036A000A987BA876F81788589859A8520E030E07F
:1036B00040E85FE30E94F60388232CF481E090E069
:1036C0009E838D833FC06F81788589859A8520E0B0
:1036D0003FEF4FE757E40E94960318164CF56B85B1
:1036E0007C858D859E8520E030E040E251E40E949B
:1036F0009C02DC01CB01BC01CD010E94C600DC01B3
:10370000CB019E838D830FC080E991E09C838B83E6
:103710008B819C810197F1F79C838B838D819E81A6
:1037200001979E838D838D819E81009769F714C0D8
:103730006F81788589859A850E94C600DC01CB015E
:103740009E838D838D819E819A83898389819A81CD
:103750000197F1F79A8389830E9415188E8D482F5F
:1037600050E08D8D882F90E09C01220F331FC901FE
:10377000880F991F880F991F820F931F840F951F21
:10378000AA2797FDA095BA2F8093B7009093B80011
:10379000A093B900B093BA008091B7009091B8009F
:1037A000A091B900B091BA002CE330E040E050E0C5
:1037B000BC01CD010E94BB1DDC01CB018093B70091
:1037C0009093B800A093B900B093BA008091B7006D
:1037D0009091B800A091B900B091BA008093B30065
:1037E0009093B400A093B500B093B6008091AE0062
:1037F0008F5F8093AE008091AE00813009F4ABCE34
:10380000ACC02EE830E080E060E0A9010E94AB1778
:103810008091B3009091B400A091B500B091B60032
:103820000E94C4178091B3009091B400A091B5009C
:10383000B091B600883EF3E09F07F0E0AF07F0E0FC
:10384000BF0738F480E06BE00E94691780E20E94B5
:10385000C5128091B3009091B400A091B500B091D1
:10386000B60084369105A105B10538F480E06AE020
:103870000E94691780E20E94C5128091B300909166
:10388000B400A091B500B091B6008A309105A105B1
:10389000B10538F480E069E00E94691780E20E9477
:1038A000C5128091B3009091B400A091B500B09181
:1038B000B6000097A105B10509F04FC00E94850D23
:1038C0008093B0008091B000282F30E084E690E033
:1038D000AC01249FC001259F900D349F900D1124B1
:1038E000AA2797FDA095BA2F2FEF30E040E050E0D7
:1038F000BC01CD010E94EE1DDA01C901982F84E6BA
:10390000891B8093BB008091BB000E946C06809154
:10391000BB00833390F481E00E946D0D81E08093C1
:10392000B20080919F008823E1F785E080939F009B
:103930001092B20080E00E946D0D8091B7009091CE
:10394000B800A091B900B091BA008093B3009093F1
:10395000B400A093B500B093B6008091AE00823061
:1039600009F44FCFF2CDDF93CF93CDB7DEB7629797
:103970000FB6F894DEBF0FBECDBF9A8B898B188A25
:103980008DC00E941F188F8780E090E0AAE7B3E403
:103990008B879C87AD87BE876B857C858D859E8553
:1039A00020E030E04AE755E40E949C02DC01CB01B4
:1039B0008F839887A987BA876F81788589859A854B
:1039C00020E030E040E85FE30E94F60388232CF417
:1039D00081E090E09E838D833FC06F8178858985EB
:1039E0009A8520E03FEF4FE757E40E9496031816B0
:1039F0004CF56B857C858D859E8520E030E040E22E
:103A000051E40E949C02DC01CB01BC01CD010E946B
:103A1000C600DC01CB019E838D830FC080E991E05D
:103A20009C838B838B819C810197F1F79C838B8393
:103A30008D819E8101979E838D838D819E810097CC
:103A400069F714C06F81788589859A850E94C600C0
:103A5000DC01CB019E838D838D819E819A83898336
:103A600089819A810197F1F79A8389838F858E35B1
:103A7000A9F08F85833291F08889282F30E08989D9
:103A80009A89FC01E20FF31F8F8580838F85882F31
:103A900090E00E94C41788898F5F888B8889823064
:103AA00008F46FCF0E941F188332E1F762960FB6B9
:103AB000F894DEBF0FBECDBFCF91DF910895DF93A5
:103AC000CF93CDB7DEB71092AE00CF91DF910895BE
:103AD000DF93CF93CDB7DEB781E08093AE00CF9177
:103AE000DF910895DF93CF93CDB7DEB78091B1001A
:103AF0008F5F8093B1008091B1008F33C9F58091C1
:103B0000AE008230B9F48091B200882399F480919C
:103B1000B3009091B400A091B500B091B6000197A8
:103B2000A109B1098093B3009093B400A093B500AC
:103B3000B093B6008091AE00882379F48091AF00F5
:103B40008F5F8093AF008091AF00853031F480911A
:103B5000BB000E946C061092AF008091B2008823D7
:103B600029F080919F00815080939F001092B100B6
:103B7000CF91DF910895629FD001739FF001829FE2
:103B8000E00DF11D649FE00DF11D929FF00D839FEC
:103B9000F00D749FF00D659FF00D9927729FB00D89
:103BA000E11DF91F639FB00DE11DF91FBD01CF019C
:103BB00011240895AA1BBB1B51E107C0AA1FBB1FFC
:103BC000A617B70710F0A61BB70B881F991F5A95A9
:103BD000A9F780959095BC01CD010895A1E21A2E18
:103BE000AA1BBB1BFD010DC0AA1FBB1FEE1FFF1FA1
:103BF000A217B307E407F50720F0A21BB30BE40BF1
:103C0000F50B661F771F881F991F1A9469F7609537
:103C10007095809590959B01AC01BD01CF010895F1
:103C20002F923F924F925F926F927F928F929F92CC
:103C3000AF92BF92CF92DF92EF92FF920F931F93BA
:103C4000CF93DF93CDB7DEB7CA1BDB0B0FB6F8946B
:103C5000DEBF0FBECDBF09942A88398848885F84AB
:103C60006E847D848C849B84AA84B984C884DF801C
:103C7000EE80FD800C811B81AA81B981CE0FD11D00
:103C80000FB6F894DEBF0FBECDBFED010895EF92E1
:103C9000FF920F931F93F22FF02E47FD02C0E4E036
:103CA00001C0E4E1242F332727FD309537FF03C0FF
:103CB000309521953F4F4F2D512F0F2FEE2E0E9403
:103CC000891E8F2D912F1F910F91FF90EF900895D6
:103CD000FB019F01E8944230C4F04532B4F44A300D
:103CE00029F497FB1EF4909581959F4F642F7727B9
:103CF0000E94DA1D805D8A330CF0895D8193CB01CF
:103D00000097A1F716F45DE251931082C9010C945B
:103D1000C320A9E0B0E0EFE8FEE10C94141E6A01B4
:103D2000122FA02EBE2C2BE3201718F42CE3922E7A
:103D300002C0902E9394AE014F5F5F4F27E0092D94
:103D40000E94EB1FBC018981E82EFF24C701897006
:103D50009070019711F4ADE209C0B1FE02C0ABE270
:103D600005C0B0FC02C0A0E001C0A0E2E3FE3BC081
:103D7000AA2311F423E001C024E0211710F020E071
:103D800002C0121B212FEB2CB4FE02C0322F0AC03E
:103D9000F601322F80E202C0819331503323E1F7E4
:103DA000C20ED11CAA2319F0F601A1936F01F601EE
:103DB0003196E2FE05C09EE4D6019C9381E404C0E6
:103DC0009EE6D6019C9381E611968C939183329660
:103DD000DF01832F90E202C09D9381508823E1F799
:103DE000E30FF11D40C0E2FE42C0AA2311F423E01C
:103DF00001C024E0211710F020E002C0121B212F87
:103E0000EB2CB4FE02C0922F0AC0F601922F80E282
:103E100002C0819391509923E1F7C20ED11CAA23CD
:103E200019F0F601A1936F01F6013196E2FE08C088
:103E300089E4D6018C938EE411968C9386E407C0B6
:103E400089E6D6018C938EE611968C9386E6818363
:103E50003296DF01892F20E202C02D938150882302
:103E6000E1F7E90FF11D10822EEF3FEFAFC01616FC
:103E700017061CF041E050E003C0AB014F5F5F4FFD
:103E8000AA2019F480E090E003C08A2D90E001960A
:103E900020E030E0AA2311F021E030E0240F351FAC
:103EA000280F391F812F90E02817390714F020E0E0
:103EB00002C0121B212F4B2D50E0CA01807190705F
:103EC000B4FC0DC0B3FC0BC0F601322F40E202C0BF
:103ED000419331503323E1F7C20ED11C01C0322F80
:103EE000AA2319F0F601A1936F01892B11F0132F6A
:103EF0000AC0F601132F80E302C0819311501123F1
:103F0000E1F7C30ED11C092D060FBA8090E1892E6E
:103F1000912C8E209F20E4FE04C0F1E3BF1609F42B
:103F20000150101614F001E003C0093008F008E059
:103F30009B0177FF02C020E030E0CB010196821B9D
:103F4000930BFE013196E80FF91F8EE2F82E3B012C
:103F5000601A71088A2D90E044275527481B590B99
:103F60008FEF2F3F380719F4D601FD926D016217CC
:103F700073072CF06216730614F4808101C080E38D
:103F80002150304031962417350724F0D6018D9307
:103F90006D01E6CF2617370749F4B5E3BB1528F0C6
:103FA000BB1621F48114910409F481E3F601819395
:103FB000D601812F90E202C09C93815011968823F4
:103FC000D9F7E10FF11D108220E030E0C9012996F8
:103FD000EEE00C94301E283008F027E03327DA0199
:103FE000990F311D87FD916000966105710539F4C7
:103FF00032602E5F3D9330E32A95E1F708959F3FAD
:1040000030F080387105610509F03C5F3C5F3D93FD
:10401000913008F08068911DDF93CF931F930F9329
:10402000FF92EF92192F987F9695E92F9695969586
:10403000E90FFF27E255FF4F99273327EE24FF248E
:10404000A701E70105900894079428F4360FE71EAE
:10405000F81E491F511D660F771F881F991F069470
:10406000A1F70590079428F4E70EF81E491F561F84
:10407000C11D770F881F991F661F0694A1F7059031
:10408000079428F4F80E491F561FC71FD11D880F2B
:10409000991F661F771F0694A1F70590079420F4D7
:1040A000490F561FC71FD81F990F661F771F881FFC
:1040B0000694A9F784911095177041F0D695C7958D
:1040C00057954795F794E7941A95C1F7E4E5F0E022
:1040D00068941590159135916591959105907FE2C1
:1040E0007395E118F10A430B560BC90BD009C0F7C1
:1040F000E10CF11E431F561FC91FD01D7EF4703303
:1041000011F48A95E6CFE894015030F0080F0AF4D4
:104110000027021708F4202F2395022F7A3328F066
:1041200079E37D932A95E9F710C07D932A9589F666
:10413000069497956795379517951794E118F10AA6
:10414000430B560BC90BD00998F023957E917395BC
:104150007A3308F070E37C932013B8F77E91706196
:104160007D9330F0839571E37D9370E32A95E1F7B9
:104170001124EF90FF900F911F91CF91DF9199271C
:1041800087FD90950895DC01FC01672F71917723DD
:10419000E1F7329704C07C916D9370836291AE1702
:0A41A000BF07C8F30895F894FFCF9D
:1041AA0057617465722050756D703A200056616CC3
:1041BA0075653A20004F4E004F464600456E7465BD
:1041CA007220506572696F6400444F4E450054690D
:1041DA006D6572203A200000000000000000000512
:0641EA0000FA02050000CE
:00000001FF
